{
  "contractName": "Voting",
  "abi": [
    {
      "inputs": [
        {
          "internalType": "string[]",
          "name": "candidateNames",
          "type": "string[]"
        }
      ],
      "stateMutability": "nonpayable",
      "type": "constructor"
    },
    {
      "inputs": [
        {
          "internalType": "uint256",
          "name": "",
          "type": "uint256"
        }
      ],
      "name": "candidateList",
      "outputs": [
        {
          "internalType": "string",
          "name": "",
          "type": "string"
        }
      ],
      "stateMutability": "view",
      "type": "function"
    },
    {
      "inputs": [
        {
          "internalType": "string",
          "name": "",
          "type": "string"
        }
      ],
      "name": "votesReceived",
      "outputs": [
        {
          "internalType": "uint256",
          "name": "",
          "type": "uint256"
        }
      ],
      "stateMutability": "view",
      "type": "function"
    },
    {
      "inputs": [
        {
          "internalType": "string",
          "name": "candidate",
          "type": "string"
        }
      ],
      "name": "voteForCandidate",
      "outputs": [],
      "stateMutability": "nonpayable",
      "type": "function"
    },
    {
      "inputs": [
        {
          "internalType": "string",
          "name": "candidate",
          "type": "string"
        }
      ],
      "name": "totalVotesFor",
      "outputs": [
        {
          "internalType": "uint256",
          "name": "",
          "type": "uint256"
        }
      ],
      "stateMutability": "view",
      "type": "function"
    }
  ],
  "bytecode": "0x608060405234801562000010575f80fd5b5060405162000d5038038062000d508339818101604052810190620000369190620003b8565b80600190805190602001906200004e92919062000056565b505062000722565b828054828255905f5260205f20908101928215620000a1579160200282015b82811115620000a05782518290816200008f91906200063e565b509160200191906001019062000075565b5b509050620000b09190620000b4565b5090565b5b80821115620000d7575f8181620000cd9190620000db565b50600101620000b5565b5090565b508054620000e9906200043e565b5f825580601f10620000fc57506200011b565b601f0160209004905f5260205f20908101906200011a91906200011e565b5b50565b5b8082111562000137575f815f9055506001016200011f565b5090565b5f604051905090565b5f80fd5b5f80fd5b5f80fd5b5f601f19601f8301169050919050565b7f4e487b71000000000000000000000000000000000000000000000000000000005f52604160045260245ffd5b620001988262000150565b810181811067ffffffffffffffff82111715620001ba57620001b962000160565b5b80604052505050565b5f620001ce6200013b565b9050620001dc82826200018d565b919050565b5f67ffffffffffffffff821115620001fe57620001fd62000160565b5b602082029050602081019050919050565b5f80fd5b5f80fd5b5f67ffffffffffffffff82111562000234576200023362000160565b5b6200023f8262000150565b9050602081019050919050565b5f5b838110156200026b5780820151818401526020810190506200024e565b5f8484015250505050565b5f6200028c620002868462000217565b620001c3565b905082815260208101848484011115620002ab57620002aa62000213565b5b620002b88482856200024c565b509392505050565b5f82601f830112620002d757620002d66200014c565b5b8151620002e984826020860162000276565b91505092915050565b5f620003086200030284620001e1565b620001c3565b905080838252602082019050602084028301858111156200032e576200032d6200020f565b5b835b818110156200037c57805167ffffffffffffffff8111156200035757620003566200014c565b5b808601620003668982620002c0565b8552602085019450505060208101905062000330565b5050509392505050565b5f82601f8301126200039d576200039c6200014c565b5b8151620003af848260208601620002f2565b91505092915050565b5f60208284031215620003d057620003cf62000144565b5b5f82015167ffffffffffffffff811115620003f057620003ef62000148565b5b620003fe8482850162000386565b91505092915050565b5f81519050919050565b7f4e487b71000000000000000000000000000000000000000000000000000000005f52602260045260245ffd5b5f60028204905060018216806200045657607f821691505b6020821081036200046c576200046b62000411565b5b50919050565b5f819050815f5260205f209050919050565b5f6020601f8301049050919050565b5f82821b905092915050565b5f60088302620004d07fffffffffffffffffffffffffffffffffffffffffffffffffffffffffffffffff8262000493565b620004dc868362000493565b95508019841693508086168417925050509392505050565b5f819050919050565b5f819050919050565b5f62000526620005206200051a84620004f4565b620004fd565b620004f4565b9050919050565b5f819050919050565b620005418362000506565b6200055962000550826200052d565b8484546200049f565b825550505050565b5f90565b6200056f62000561565b6200057c81848462000536565b505050565b5b81811015620005a357620005975f8262000565565b60018101905062000582565b5050565b601f821115620005f257620005bc8162000472565b620005c78462000484565b81016020851015620005d7578190505b620005ef620005e68562000484565b83018262000581565b50505b505050565b5f82821c905092915050565b5f620006145f1984600802620005f7565b1980831691505092915050565b5f6200062e838362000603565b9150826002028217905092915050565b620006498262000407565b67ffffffffffffffff81111562000665576200066462000160565b5b6200067182546200043e565b6200067e828285620005a7565b5f60209050601f831160018114620006b4575f84156200069f578287015190505b620006ab858262000621565b8655506200071a565b601f198416620006c48662000472565b5f5b82811015620006ed57848901518255600182019150602085019450602081019050620006c6565b868310156200070d578489015162000709601f89168262000603565b8355505b6001600288020188555050505b505050505050565b61062080620007305f395ff3fe608060405234801561000f575f80fd5b506004361061004a575f3560e01c80634a3bf3771461004e5780638d4b44d91461007e578063b13c744b146100ae578063e89927ef146100de575b5f80fd5b61006860048036038101906100639190610376565b6100fa565b60405161007591906103d5565b60405180910390f35b61009860048036038101906100939190610376565b610120565b6040516100a591906103d5565b60405180910390f35b6100c860048036038101906100c39190610418565b61014c565b6040516100d591906104bd565b60405180910390f35b6100f860048036038101906100f39190610376565b6101f2565b005b5f808260405161010a9190610517565b9081526020016040518091039020549050919050565b5f818051602081018201805184825260208301602085012081835280955050505050505f915090505481565b6001818154811061015b575f80fd5b905f5260205f20015f9150905080546101739061055a565b80601f016020809104026020016040519081016040528092919081815260200182805461019f9061055a565b80156101ea5780601f106101c1576101008083540402835291602001916101ea565b820191905f5260205f20905b8154815290600101906020018083116101cd57829003601f168201915b505050505081565b60015f826040516102039190610517565b90815260200160405180910390205f82825461021f91906105b7565b9250508190555050565b5f604051905090565b5f80fd5b5f80fd5b5f80fd5b5f80fd5b5f601f19601f8301169050919050565b7f4e487b71000000000000000000000000000000000000000000000000000000005f52604160045260245ffd5b61028882610242565b810181811067ffffffffffffffff821117156102a7576102a6610252565b5b80604052505050565b5f6102b9610229565b90506102c5828261027f565b919050565b5f67ffffffffffffffff8211156102e4576102e3610252565b5b6102ed82610242565b9050602081019050919050565b828183375f83830152505050565b5f61031a610315846102ca565b6102b0565b9050828152602081018484840111156103365761033561023e565b5b6103418482856102fa565b509392505050565b5f82601f83011261035d5761035c61023a565b5b813561036d848260208601610308565b91505092915050565b5f6020828403121561038b5761038a610232565b5b5f82013567ffffffffffffffff8111156103a8576103a7610236565b5b6103b484828501610349565b91505092915050565b5f819050919050565b6103cf816103bd565b82525050565b5f6020820190506103e85f8301846103c6565b92915050565b6103f7816103bd565b8114610401575f80fd5b50565b5f81359050610412816103ee565b92915050565b5f6020828403121561042d5761042c610232565b5b5f61043a84828501610404565b91505092915050565b5f81519050919050565b5f82825260208201905092915050565b5f5b8381101561047a57808201518184015260208101905061045f565b5f8484015250505050565b5f61048f82610443565b610499818561044d565b93506104a981856020860161045d565b6104b281610242565b840191505092915050565b5f6020820190508181035f8301526104d58184610485565b905092915050565b5f81905092915050565b5f6104f182610443565b6104fb81856104dd565b935061050b81856020860161045d565b80840191505092915050565b5f61052282846104e7565b915081905092915050565b7f4e487b71000000000000000000000000000000000000000000000000000000005f52602260045260245ffd5b5f600282049050600182168061057157607f821691505b6020821081036105845761058361052d565b5b50919050565b7f4e487b71000000000000000000000000000000000000000000000000000000005f52601160045260245ffd5b5f6105c1826103bd565b91506105cc836103bd565b92508282019050808211156105e4576105e361058a565b5b9291505056fea2646970667358221220cfab7165206d4c3d5e23d28c67adff4f4e1c322f1635938e94826ebe4008780b64736f6c63430008150033",
  "immutableReferences": {},
  "source": "// SPDX-License-Identifier: MIT\r\npragma solidity ^0.8.0;\r\n\r\ncontract Voting {\r\n    // Store votes for candidates\r\n    mapping(string => uint) public votesReceived;\r\n\r\n    // Array to store list of candidates\r\n    string[] public candidateList;\r\n\r\n    // Constructor to initialize candidates\r\n    constructor(string[] memory candidateNames) {\r\n        candidateList = candidateNames;\r\n    }\r\n\r\n    // Vote for a candidate\r\n    function voteForCandidate(string memory candidate) public {\r\n        votesReceived[candidate] += 1;\r\n    }\r\n\r\n    // Get total votes for a candidate\r\n    function totalVotesFor(string memory candidate) public view returns (uint) {\r\n        return votesReceived[candidate];\r\n    }\r\n}\r\n",
  "sourcePath": "C:\\Users\\aksha\\Desktop\\web\\smart-contract\\backend\\contracts\\Voting.sol",
  "compiler": {
    "name": "solc",
    "version": "0.8.21+commit.d9974bed.Emscripten.clang"
  },
  "schemaVersion": "3.4.16",
  "updatedAt": "2024-10-07T03:57:21.702Z",
  "devdoc": {
    "kind": "dev",
    "methods": {},
    "version": 1
  },
  "userdoc": {
    "kind": "user",
    "methods": {},
    "version": 1
  }
}